{
  "_format": "hh-sol-artifact-1",
  "contractName": "AthleteRegistry",
  "sourceName": "contracts/AthleteRegistry.sol",
  "abi": [
    {
      "inputs": [
        {
          "internalType": "address",
          "name": "",
          "type": "address"
        }
      ],
      "name": "athletes",
      "outputs": [
        {
          "internalType": "string",
          "name": "name",
          "type": "string"
        },
        {
          "internalType": "string",
          "name": "college",
          "type": "string"
        },
        {
          "internalType": "string",
          "name": "year",
          "type": "string"
        },
        {
          "internalType": "string",
          "name": "position",
          "type": "string"
        },
        {
          "internalType": "string",
          "name": "bio",
          "type": "string"
        },
        {
          "internalType": "address",
          "name": "wallet",
          "type": "address"
        },
        {
          "internalType": "bool",
          "name": "exists",
          "type": "bool"
        }
      ],
      "stateMutability": "view",
      "type": "function"
    },
    {
      "inputs": [
        {
          "internalType": "string",
          "name": "_name",
          "type": "string"
        },
        {
          "internalType": "string",
          "name": "_college",
          "type": "string"
        },
        {
          "internalType": "string",
          "name": "_year",
          "type": "string"
        },
        {
          "internalType": "string",
          "name": "_position",
          "type": "string"
        },
        {
          "internalType": "string",
          "name": "_bio",
          "type": "string"
        }
      ],
      "name": "registerAthlete",
      "outputs": [],
      "stateMutability": "nonpayable",
      "type": "function"
    }
  ],
  "bytecode": "0x6080604052348015600f57600080fd5b50610d4d8061001f6000396000f3fe608060405234801561001057600080fd5b50600436106100365760003560e01c8063cff98c511461003b578063e7dcc58714610071575b600080fd5b6100556004803603810190610050919061060e565b61008d565b60405161006897969594939291906106f5565b60405180910390f35b61008b600480360381019061008691906108bc565b6103a4565b005b60006020528060005260406000206000915090508060000180546100b0906109f2565b80601f01602080910402602001604051908101604052809291908181526020018280546100dc906109f2565b80156101295780601f106100fe57610100808354040283529160200191610129565b820191906000526020600020905b81548152906001019060200180831161010c57829003601f168201915b50505050509080600101805461013e906109f2565b80601f016020809104026020016040519081016040528092919081815260200182805461016a906109f2565b80156101b75780601f1061018c576101008083540402835291602001916101b7565b820191906000526020600020905b81548152906001019060200180831161019a57829003601f168201915b5050505050908060020180546101cc906109f2565b80601f01602080910402602001604051908101604052809291908181526020018280546101f8906109f2565b80156102455780601f1061021a57610100808354040283529160200191610245565b820191906000526020600020905b81548152906001019060200180831161022857829003601f168201915b50505050509080600301805461025a906109f2565b80601f0160208091040260200160405190810160405280929190818152602001828054610286906109f2565b80156102d35780601f106102a8576101008083540402835291602001916102d3565b820191906000526020600020905b8154815290600101906020018083116102b657829003601f168201915b5050505050908060040180546102e8906109f2565b80601f0160208091040260200160405190810160405280929190818152602001828054610314906109f2565b80156103615780601f1061033657610100808354040283529160200191610361565b820191906000526020600020905b81548152906001019060200180831161034457829003601f168201915b5050505050908060050160009054906101000a900473ffffffffffffffffffffffffffffffffffffffff16908060050160149054906101000a900460ff16905087565b6000803373ffffffffffffffffffffffffffffffffffffffff1673ffffffffffffffffffffffffffffffffffffffff16815260200190815260200160002060050160149054906101000a900460ff1615610433576040517f08c379a000000000000000000000000000000000000000000000000000000000815260040161042a90610a6f565b60405180910390fd5b6040518060e001604052808681526020018581526020018481526020018381526020018281526020013373ffffffffffffffffffffffffffffffffffffffff168152602001600115158152506000803373ffffffffffffffffffffffffffffffffffffffff1673ffffffffffffffffffffffffffffffffffffffff16815260200190815260200160002060008201518160000190816104d29190610c45565b5060208201518160010190816104e89190610c45565b5060408201518160020190816104fe9190610c45565b5060608201518160030190816105149190610c45565b50608082015181600401908161052a9190610c45565b5060a08201518160050160006101000a81548173ffffffffffffffffffffffffffffffffffffffff021916908373ffffffffffffffffffffffffffffffffffffffff16021790555060c08201518160050160146101000a81548160ff0219169083151502179055509050505050505050565b6000604051905090565b600080fd5b600080fd5b600073ffffffffffffffffffffffffffffffffffffffff82169050919050565b60006105db826105b0565b9050919050565b6105eb816105d0565b81146105f657600080fd5b50565b600081359050610608816105e2565b92915050565b600060208284031215610624576106236105a6565b5b6000610632848285016105f9565b91505092915050565b600081519050919050565b600082825260208201905092915050565b60005b8381101561067557808201518184015260208101905061065a565b60008484015250505050565b6000601f19601f8301169050919050565b600061069d8261063b565b6106a78185610646565b93506106b7818560208601610657565b6106c081610681565b840191505092915050565b6106d4816105d0565b82525050565b60008115159050919050565b6106ef816106da565b82525050565b600060e082019050818103600083015261070f818a610692565b905081810360208301526107238189610692565b905081810360408301526107378188610692565b9050818103606083015261074b8187610692565b9050818103608083015261075f8186610692565b905061076e60a08301856106cb565b61077b60c08301846106e6565b98975050505050505050565b600080fd5b600080fd5b7f4e487b7100000000000000000000000000000000000000000000000000000000600052604160045260246000fd5b6107c982610681565b810181811067ffffffffffffffff821117156107e8576107e7610791565b5b80604052505050565b60006107fb61059c565b905061080782826107c0565b919050565b600067ffffffffffffffff82111561082757610826610791565b5b61083082610681565b9050602081019050919050565b82818337600083830152505050565b600061085f61085a8461080c565b6107f1565b90508281526020810184848401111561087b5761087a61078c565b5b61088684828561083d565b509392505050565b600082601f8301126108a3576108a2610787565b5b81356108b384826020860161084c565b91505092915050565b600080600080600060a086880312156108d8576108d76105a6565b5b600086013567ffffffffffffffff8111156108f6576108f56105ab565b5b6109028882890161088e565b955050602086013567ffffffffffffffff811115610923576109226105ab565b5b61092f8882890161088e565b945050604086013567ffffffffffffffff8111156109505761094f6105ab565b5b61095c8882890161088e565b935050606086013567ffffffffffffffff81111561097d5761097c6105ab565b5b6109898882890161088e565b925050608086013567ffffffffffffffff8111156109aa576109a96105ab565b5b6109b68882890161088e565b9150509295509295909350565b7f4e487b7100000000000000000000000000000000000000000000000000000000600052602260045260246000fd5b60006002820490506001821680610a0a57607f821691505b602082108103610a1d57610a1c6109c3565b5b50919050565b7f4174686c65746520616c72656164792072656769737465726564000000000000600082015250565b6000610a59601a83610646565b9150610a6482610a23565b602082019050919050565b60006020820190508181036000830152610a8881610a4c565b9050919050565b60008190508160005260206000209050919050565b60006020601f8301049050919050565b600082821b905092915050565b600060088302610af17fffffffffffffffffffffffffffffffffffffffffffffffffffffffffffffffff82610ab4565b610afb8683610ab4565b95508019841693508086168417925050509392505050565b6000819050919050565b6000819050919050565b6000610b42610b3d610b3884610b13565b610b1d565b610b13565b9050919050565b6000819050919050565b610b5c83610b27565b610b70610b6882610b49565b848454610ac1565b825550505050565b600090565b610b85610b78565b610b90818484610b53565b505050565b5b81811015610bb457610ba9600082610b7d565b600181019050610b96565b5050565b601f821115610bf957610bca81610a8f565b610bd384610aa4565b81016020851015610be2578190505b610bf6610bee85610aa4565b830182610b95565b50505b505050565b600082821c905092915050565b6000610c1c60001984600802610bfe565b1980831691505092915050565b6000610c358383610c0b565b9150826002028217905092915050565b610c4e8261063b565b67ffffffffffffffff811115610c6757610c66610791565b5b610c7182546109f2565b610c7c828285610bb8565b600060209050601f831160018114610caf5760008415610c9d578287015190505b610ca78582610c29565b865550610d0f565b601f198416610cbd86610a8f565b60005b82811015610ce557848901518255600182019150602085019450602081019050610cc0565b86831015610d025784890151610cfe601f891682610c0b565b8355505b6001600288020188555050505b50505050505056fea2646970667358221220b6a553d73935fd1ccbfe2b6835ef5c95f47cbc277aafd3d59fcc7282a2f0fd4264736f6c634300081c0033",
  "linkReferences": {},
  "deployedLinkReferences": {}
}